:100000000C946F000C9456030C948C000C948C0090
:100010000C948C000C948C000C948C000C948C0030
:100020000C948C000C948C000C948C000C948C0020
:100030000C948C000C9425010C948C000C948C0076
:100040000C948C000C948C000C948C000C948C0000
:100050000C948C000C948C000C948C000C948C00F0
:100060000C948C000C948C00040309042203770088
:10007000770077002E007300640072002D006B0083
:100080006900740073002E006E0065007400220386
:100090004400470038005300410051002D00560035
:1000A0004E0057004100200033002E003000200099
:1000B0000A03330034003200350012011001FF0042
:1000C0000008A020184100010102030109021200EA
:1000D00001010080960904000000000000001124C6
:1000E0001FBECFEFD8E0DEBFCDBF11E0A0E0B1E092
:1000F000E0E5F9E002C005900D92A230B107D9F712
:1001000016E0A2E0B1E001C01D92AF3FB107E1F7F8
:100110000E944E010C94A6040C940000482F80917C
:100120008B018E3E89F450910201242F392FC90191
:10013000DC01852F90E0FC01E357FE4F9C01260F68
:10014000311D23573E4F0BC020E03AE0F901A59145
:10015000B491842FFD01099508958D918193E21743
:10016000F307D9F7862F850F8093020187FD02C020
:1001700080E008951092020181E00895DC0183E09F
:1001800091E09093E4068093E30611968C91119789
:10019000882399F480E09AE090930401809303010E
:1001A00080E09FE3880F991F9093060180930501DB
:1001B00080E88093070185E008958E3E49F082E053
:1001C0009AE0FC0125913491CD01F901099508953A
:1001D00080938B0112964C91129740938C01159647
:1001E0009C91159780E014962C9130E0282B392BA8
:1001F0003093D4062093D3064E3E91F4FAE020309B
:100200003F0710F48AEA08C0B90180E090E04DE8A9
:1002100051E00E94003F80E88093030181E008954F
:100220004F3E10F08FEF089540E080E890E0A42F5B
:10023000B0E0FD01E20FF31FE491AD5FBE4FEC9320
:100240004F5F0197A1F780E808951F920F920FB6B4
:100250000F9211242F933F934F935F936F937F934C
:100260008F939F93AF93BF93EF93FF9384E09AE0B4
:10027000FC0125913491F9010995FF91EF91BF910E
:10028000AF919F918F917F916F915F914F913F912E
:100290002F910F900FBE0F901F901895CF92DF9265
:1002A000EF92FF920F931F93CF93DF9388E10FB6E6
:1002B000F89480936000109260000FBEF999FECF11
:1002C00080EF91E092BD81BDF89A80B5809389015D
:1002D0001092880110928701109286011092850178
:1002E0008FEF9FEF909384018093830188EC80933C
:1002F0007C0087E880937A008FEF85B914B880E39B
:1003000095E70197F1F7189B07C086E09AE0FC019A
:1003100025913491F9010995519A20E048EC5FEA62
:10032000CA010197F1F72F5F2431D1F751988DE081
:1003300028E130E00FB6F894A895209360000FBE36
:100340008093600015B88FEF84B90E941C027894E6
:1003500041E0C42ED12C30EFE32E31E0F32E04EF38
:1003600011E0C8EFD1E0A8950E94230280917A00A5
:1003700086FDF9CF409187015091880140345105A5
:10038000A8F42091780030917900809185019091B6
:100390008601820F931F90938601809385014F5FA2
:1003A0005F4F509388014093870140C0809189013D
:1003B0008F3F09F027C010928901F999FECF1FBA2B
:1003C000F2BCE1BC10BC0FB6F894FA9AF99A0FBED1
:1003D0008091850190918601F999FECF1FBA12BDD7
:1003E00001BD80BD0FB6F894FA9AF99A0FBEF9993B
:1003F000FECF1FBAD2BDC1BD90BD0FB6F894FA9A18
:10040000F99A0FBE809185019091860190938401A5
:100410008093830180917800909179009093860178
:1004200080938501D0928801C092870180917A00E3
:10043000806480937A0097CFE9E6F0E08081836062
:100440008083E89A08950F931F93CF93DF93609171
:10045000E50616160CF0AEC063508091E206CCE0C3
:10046000D0E0C81BD109C751D94F8091E1068D3228
:1004700009F082C08AE580930101683009F090C0DC
:100480008881807609F065C01092DE068981882314
:1004900051F41092DF068EED96E09093E40680937F
:1004A000E30632E061C0853021F48A818093E6065C
:1004B000DAC08630C1F58B81813019F48AEB90E087
:1004C00004C0823041F48CEC90E09093E406809379
:1004D000E30632E1CBC0833009F0C7C08A818823AC
:1004E00041F488E690E09093E4068093E30634E0DC
:1004F000BDC0813019F48CE690E004C0823041F434
:100500008EE890E09093E4068093E30632E2AEC07A
:10051000833009F0AAC080EB90E09093E4068093CA
:10052000E3063AE0A3C0883019F488EE96E00BC0E9
:10053000893021F48A818093E80695C08A3009F0D9
:1005400092C08EED96E09093E4068093E30631E04E
:100550000BC0CE010E94BE00382F8F3F29F4888146
:1005600087FD3E81832F1AC020E88F818823D9F42C
:100570008E818317C8F017C080918A0187FD10C053
:10058000CE010E948E008F3F21F48EE18093010105
:1005900004C0882311F080E001C08FEF20E004C088
:1005A00080E020E801C0832F20938A01809300011E
:1005B0001092E5068091010184FF4AC080910001FC
:1005C0008F3F09F445C0182F893008F018E0811BCF
:1005D0008093000180918A0180FD02C00BE401C07C
:1005E00003EC8F5F80938A012091E3063091E4064B
:1005F00086FD05C0D901912FE6EDF6E011C0A6ED0C
:10060000B6E080E090E006C0F901E80FF91FE49140
:10061000ED9301961817C1F705C08D918193915004
:100620009923D9F7F901E10FF11DF093E406E09366
:10063000E306612F86ED96E00E945203183019F010
:100640008FEF809300010093D5061C5F109301018A
:100650009AE089B1837061F49150D9F71092E6065F
:100660001092E00605C030E07FCF30E020EC7DCF77
:10067000DF91CF911F910F910895A82FB92F80E09E
:1006800090E041E050EA60956F5F58F42D9138EFAB
:1006900082279795879510F0842795273F5FC8F3A9
:1006A000F3CF0895EADF8D939D930895CF93CFB74D
:1006B000CF93499BFECF499B09C0499B07C0499BEB
:1006C00005C0499B03C0499B01C0A1C0DF93C091F5
:1006D000E206DD27C751D94F499B02C0DF91EBCF1E
:1006E0002F930F931F9309B12FEF01FB20F94F9325
:1006F0003F9319B14FEF012701FB21F93BE031C0D6
:100700004E7F012F19B1216028C0102F4D7F22602C
:10071000000009B129C04B7F2460012F000019B1EE
:100720002BC019B1477F28602AC04F7E09B12061D4
:100730002CC04F7D19B120622FC04F7B09B12064BE
:1007400032C0422709B149934FEF0000102711FB37
:1007500020F919B11370C9F1297F91F2012701FB2A
:1007600021F909B1237F89F2315058F1102711FB8B
:1007700022F919B1277E79F2012701FB23F92F7C99
:1007800081F209B1102711FB24F92F7971F200C011
:1007900019B1012701FB25F92F7359F200C009B1E6
:1007A000102711FB26F9223040F200C019B10127B1
:1007B00001FB27F9243028F64F77206819B1000093
:1007C000F9CF11E01CBB002717C03B503195C31B6C
:1007D000D04011E01CBB0881033CE9F00B34D9F098
:1007E0002091E0061981110F1213EDCF093641F166
:1007F0000D3211F0013E39F70093E7063F914F911A
:100800001F910F912F91DF91CCB3C0FD52CFCF91AB
:10081000CFBFCF9118950091E706002379F310918F
:10082000E506112349F534304AF13093E50600938B
:10083000E1061091E2063BE0311B3093E2061EC058
:100840000091E5060130C4F40AE53091010134FD60
:1008500017C000930101C5EDD6E016C0052710E0D2
:100860000BB91FC0052722C0052727C005272CC0AC
:10087000052710E00BB933C04AE503C042ED01C0C3
:10088000432FC4E1D0E032E01AB11360599A0BB1A2
:100890001AB95F9353E020E820FF05270BB927958D
:1008A00017951C3FD8F620FF052727950BB91795FC
:1008B0001C3FC0F620FF0527279517950BB91C3F55
:1008C00098F620FF0527279517951C3F0BB970F662
:1008D00000C0499120FF05270BB9279517951C3FAC
:1008E00038F620FF052727950BB917951C3F38F5DB
:1008F00020FF0527279517950BB91C3F10F520FF02
:100900000527279517951C3F0BB9E8F4242F3A9536
:1009100019F60C7F5F910BB91091E606110FC651C5
:10092000D04011F01093E00611E01CBB02601AB138
:100930001C7F402F4C7F0BB91AB94BB95FCF0527ED
:10094000D3CF0527D8CF0527DDCF0000F894FFCF00
:10095000FF5AFFFFFFFFFFFFFFFFFFFFFFFFFFFF4C
:10096000FFFFFFFFFFFFFFFFFFFFFFFFFFFFFFFF97
:10097000FFFFFFFFFFFFFFFFFFFFFFFFFFFFFFFF87
:10098000FFFFFFFFFFFFFFFFFFFFFFFFFFFFFFFF77
:10099000FFFFFFFFFFFFFFFFFFFFFFFFFFFFFFFF67
:1009A000FFFFFFFFFFFFFFFFFFFFFFFFFFFFFFFF57
:1009B000FFFFFFFFFFFFFFFFFFFFFFFFFFFFFFFF47
:1009C000FFFFFFFFFFFFFFFFFFFFFFFFFFFFFFFF37
:1009D000FFFFFFFFFFFFFFFFFFFFFFFFFFFFFFFF27
:1009E000FFFFFFFFFFFFFFFFFFFFFFFFFFFFFFFF17
:1009F000FFFFFFFFFFFFFFFFFFFFFFFFFFFFFFFF07
:100A000019C0863039F18630E8F0873039F1883006
:100A1000A1F52CC08BB1877C88608BB98AB1877CAB
:100A2000BB05DC06E6083B07FFFFFFFFFFFFFFFFFC
:100A300080FF02C0409A01C0409881FD02C04298E8
:100A40000895429A089585B1817E85B92A9A2A9897
:100A50000895089585B1817E85B95F982D982D9A66
:100A60002D98089580934707843041F1853048F4EC
:100A70008130C1F0813070F08230C1F08330E9F50F
:100A800083E38093800081E080936F008BE180930B
:100A90008100089588E18093810083E08093800045
:100AA000886029C08BB1877C88620FC08BB1877C3E
:100AB000886117C08BB1877C88601AC08BB1877C36
:100AC000886116C08BB1877C88608BB98AB1877CBE
:100AD000886211C08BB1877C88620AC08BB1877C29
:100AE00088608BB98AB1877C886105C08BB18863C7
:100AF0008BB98AB188638AB908955B98539A08952F
:100B00008B0010928A00109287001092860010923B
:100B10006F0016BA0895CF93DF93EC0180918B019B
:100B200010926F00089590911107882321F0899FFA
:100B30009001112405C080911107382F330F20E058
:100B4000215030403093890020938800215030405C
:100B500030938B0020938A002250304030938500E0
:100B600020938400089510928000109281001092CA
:100B700085001092840010928900109288001092D3
:100B8000FE4FDE0102C08D9181938A2F841B861750
:100B9000D0F306C08D9181938A2F841B8617D0F3E2
:100BA000893409F04FC050918C012091D3063091C7
:100BB000D4065F30A9F04C2F8091090790910A0765
:100BC000880F991FFC01A3E0EE0FFF1FAA95E1F724
:100BD000E80FF91FE20FF31FE357FE4FDE011CC0C1
:100BE0004C2F8091090790910A07FC0174E0EE0FE9
:100BF000FF1F7A95E1F7E81BF90BE20FF31FE357AC
:100C0000F31F8081F901EC5EF84F80832F5F3F4F27
:100C10002730310599F79BC0823481F420E030E021
:100C20008091D3069091D406860F911D9093D4069F
:100C30008093D30640E0252F30E08217930708F415
:100C4000C7C0C5C08034B1F4888180930D07898105
:100C500080930E078A8180930F078B818093100702
:100C60008C81809311078D81809312078E818093F0
:100C70001307ADC0813481F420E030E0FE01E20FC3
:100C800099F765C0853411F5F999FECF1FBA84E054
:100C900090E092BD81BD10BC0FB6F894FA9AF99A13
:100CA000F901E55EF84FDE01A20FB31F8C9180833E
:100CB0002F5F3F4F2530310599F789C0833481F488
:100CC00020E030E0F901E05EF84FDE01A20FB31F33
:100CD0008C9180832F5F3F4F2530310599F777C086
:100CE000843481F420E030E0F901EB5DF84FDE015F
:100CF000A20FB31F8C9180832F5F3F4F25303105AA
:100D0000F901EF5CF84F80832F5F3F4F27303105AB
:100D100099F71DC08C34D9F420E030E0FE01E20FD9
:100D20000FBEFE0188E090E02081F999FECF1FBA46
:100D300092BD81BD20BD0FB6F894FA9AF99A0FBE04
:100D4000319604968832910579F741C0873481F451
:100D500020E030E0FE01E20FF31F8081F901E85C42
:100D6000F84F80832F5F3F4F2630310599F72FC012
:100D70008B3481F420E030E0FE01E20FF31F80812C
:100D8000030181E00895CF93DF9380E899E0909389
:100D9000D4068093D30620E839E0F9018491E35F1B
:100DA000F31F8081F901E05BF84F80832F5F3F4F95
:100DB0002430310599F78C8180934C078D81809385
:100DC0004D078E8180934E078F8180934F0741E0BE
:100DD000842FDF91CF91089523E031E03093E40632
:100DE0002093E306FC0181818F3F41F485E08093ED
:100DF000040185E18093030182E008958FEF8093E1
:100E00009E012050304AADE8B1E0DFCF569AFFCFC7
:100E1000DF91CF9108950E94F30608951F93182F34
:100E2000F74080832F5F3F4FFAE020303F07A9F75C
:100E30008091B0018A3561F115B818B88BB187700F
:100E40008BB95698C0E0D0E01BC0F90184918D9316
:100E50002F5F3F4FF2E0AD30BF07B9F7BE016078BA
:100E60007093D4066093D30680E090E04DE851E0A3
:100E70000E94003FC058DF4F8AE0C030D80731F0F1
:100E8000089580914907882321F080914807809335
:100E9000470761E081E00E942B2960E080E00E942A
:100EA00060E080E00E942B2960910C0780910B0785
:100EB0000E942B2960E080E00E942B2960E080E006
:100EC0000E942B29612F812F0E942B291F910895A9
:100ED000EF92FF920F931F93E82E062FF42E122FFE
:100EE00062E082E00E942B29612F802F0E942B2933
:100EF0006F2D8E2D0E942B291F910F91FF90EF9047
:100F000080914C0739C0113091F46091530780E013
:100F10000E942B296091520780E00E942B2960914A
:100F20002B2960E080E00E942B2960914507809189
:100F30004607660F660F660F6460880F880F880F7C
:100F400084600E942B2908951F93182F64E084E089
:100F50000E942B291123B9F46091530780914F0708
:100F60000E942B296091520780914E070E942B29E5
:100F70006091510780914D070E942B296091500785
:100F80001F93CF93DF93482F162F80911307882349
:100F900009F055C0242F30E0F90174E0EE0FFF1F77
:100FA000510780E00E942B296091500724C0123025
:100FB00099F480914F0760E00E942B2980914E07A1
:100FC00060E00E942B2980914D0760E00E942B2950
:100FD00080914C0760E010C0133081F460E080E045
:100FE0000E942B2960E080E00E942B2960E080E0D5
:100FF0000E942B2960E080E00E942B291F91089518
:1010000064E0880F991F6A95E1F7821B930BFC013E
:10101000E357FE4F248120932B07258120932C0733
:101020007A95E1F7E21BF30BE357FE4F8081918144
:101030009093010780930007828180934607838104
:101040008093450780914907813069F49091460764
:1010500080914507869586958873929596959770A9
:10106000892B80934807809146078F7180934607AC
:10107000809145078F718093450710922A07C90117
:10108000E20FF31FEE0FFF1FE157FE4F80818093A9
:10109000460713968C9180934507809149078130CC
:1010A000268120932D07278120932E0720852093CA
:1010B0002F078A569E4F9093440780934307809151
:1010C0001307813009F06DC0242F30E0C901880F6B
:1010D000991FDC0143E0AA0FBB1F4A95E1F7A80F57
:1010E000B91FA357BE4F8D919C9111979093010703
:1010F00080930007F90183E0EE0FFF1F8A95E1F767
:1011000080932D07808580932E07818580932F07FC
:1011100082858093300728563E4F309344072093B2
:1011200069F4909146078091450786958695887366
:10113000929596959770892B8093480780914607E2
:101140008F7180934607809145078F718093450783
:10115000C901880F991F9C0153E0220F331F5A9534
:10116000E1F7280F391FF901E357FE4F848180937F
:101170002A07858180932B07868180932C0787819E
:10118000442349F1809112072091120750E090E02A
:10119000019626952695821B91094817590771F4E7
:1011A00043076091480780914507CBE1D7E09E0156
:1011B00044E157E00E946E28112329F4D0934B0795
:1011C000C0934A070DC0123019F480E297E004C0C2
:1011D000113031F485E297E090934B0780934A07F2
:1011E0000E948229DF91CF911F9108958091490734
:1011F000813021F4809147070E9422054091070722
:101200000E94B2298091040790910507019690935E
:1012100005078093040778940895809158070E94E9
:10122000809158070E9494072091570740915607D4
:1012300060915507809154070E94580780910707D5
:10124000813011F40E94B229809107078150809368
:1012500007077894089580910607882309F056C0FF
:101260008091040790910507029620910007309124
:1012700001078217930788F4809158070E9494070A
:101280009093050780930407789408958E30B9F4FD
:101290008FE08093060760E0809102070E94F007CC
:1012A000940720910207309103078091100790E086
:1012B000019728173907A1F02F5F3F4F309303079D
:1012C0002093020780910F07833030F480E18093F0
:1012D000060760E0822F0DC08EE0809306070BC0EA
:1012E000109203071092020781E08093060762E0E4
:1012F00080E00E94F0078091040790910507019615
:101300000507109204071092060709C08091040790
:1013100090910507019690930507809304077894B0
:1013200080910F078093080780910407909105072B
:1013300001969093050780930407789408958F3061
:1013400049F480E2809306070E9471078091580754
:101350000E94940790910607903119F580E28093DE
:1013600006070E947107809158070E949407809198
:101370000F0780930807882349F40E94B22910922E
:101380000E070E94080578940895809108078150FF
:1013900080930807882341F40E94B2291092050720
:1013A0000895913091F40E947107809158070E942E
:1013B000940761E0809102070E94F0078091060780
:1013C0008F5F8093060778940895923059F4809146
:1013D00058070E949407809106078F5F8093060745
:1013E00078940895933089F488E1809381009093F4
:1013F000800010926F00419880E8809306078091EA
:101400008091470780934807809146078F718093AA
:101410004607809145078F7180934507809131077A
:101420001092040710920607789408951F93CF93A3
:10143000DF93182F80911307882309F047C080910C
:101440008D0190918E019093010780930007809108
:101450008F0180934607809190018093450780918A
:101460004907813069F49091460780914507869538
:1014700086958873929596959770892B0E94220580
:10148000460780914507869586958873929596952F
:101490009770892B0E942205809147078093480707
:1014A00080932A078091320780932B07809133071E
:1014B00080932C078091340780932D078091350706
:1014C00080932E078091360780932F078091130712
:1014D000813009F04BC080918D0190918E019093E5
:1014E00001078093000780918F01809346078091C8
:1014F00090018093450780914907813069F490916C
:101500006E28112329F4D0934B07C0934A070DC0CE
:10151000123019F480E297E004C0113031F485E212
:10152000809146078F7180934607809145078F71A0
:10153000809345078091310780932A078091320775
:1015400080932B078091330780932C078091340779
:1015500080932D078091350780932E078091360761
:1015600080932F078091370780933007609147075A
:1015700080914507CBE1D7E09E0144E157E00E940E
:101580002A9A2A9882E00E94060A80E00E94940724
:1015900060E080E00E94F0070895109280001092B1
:1015A00097E090934B0780934A070E948229DF912E
:1015B000CF911F9108950E9408051092060780910F
:1015C00012078F5F8093070710920307109202079C
:1015D000109205071092040781E00E94060A80E03D
:1015E0000E943E072FE34FEF6FE38FEF0E945807F3
:1015F0000E94710780E00E94940785B1817E85B9C1
:1016000020938A002250304030938500209384003C
:1016100083E38093800081E080936F008BE180936F
:10162000810010928500109284001092890010921F
:10163000880010928B0010928A00109287001092FE
:10164000860010926F0016BA419A0E94CB0A8091D0
:101650000D0790911107882321F0989F9001112484
:1016600005C080911107382F330F20E02150304002
:1016700030938900209388002150304030938B00B4
:10168000FFFFFFFFFFFFFFFFFFFFFFFFFFFFFFFF6A
:10169000FFFFFFFFFFFFFFFFFFFFFFFFFFFFFFFF5A
:1016A00081000895FFFFFFFFFFFFFFFFFFFFFFFF28
:1016B000FFFFFFFFFFFFFFFFFFFFFFFFFFFFFFFF3A
:1016C000FFFFFFFFFFFFFFFFFFFFFFFFFFFFFFFF2A
:1016D000FFFFFFFFFFFFFFFFFFFFFFFFFFFFFFFF1A
:1016E000FFFFFFFFFFFFFFFFFFFFFFFFFFFFFFFF0A
:00000001FF
